{
  "_format": "hh-sol-artifact-1",
  "contractName": "CoinTreeNFT",
  "sourceName": "contracts/CoinTreeNFT.sol",
  "abi": [
    {
      "inputs": [],
      "stateMutability": "nonpayable",
      "type": "constructor"
    },
    {
      "anonymous": false,
      "inputs": [
        {
          "indexed": true,
          "internalType": "address",
          "name": "owner",
          "type": "address"
        },
        {
          "indexed": true,
          "internalType": "address",
          "name": "approved",
          "type": "address"
        },
        {
          "indexed": true,
          "internalType": "uint256",
          "name": "tokenId",
          "type": "uint256"
        }
      ],
      "name": "Approval",
      "type": "event"
    },
    {
      "anonymous": false,
      "inputs": [
        {
          "indexed": true,
          "internalType": "address",
          "name": "owner",
          "type": "address"
        },
        {
          "indexed": true,
          "internalType": "address",
          "name": "operator",
          "type": "address"
        },
        {
          "indexed": false,
          "internalType": "bool",
          "name": "approved",
          "type": "bool"
        }
      ],
      "name": "ApprovalForAll",
      "type": "event"
    },
    {
      "anonymous": false,
      "inputs": [
        {
          "indexed": true,
          "internalType": "address",
          "name": "from",
          "type": "address"
        },
        {
          "indexed": true,
          "internalType": "address",
          "name": "to",
          "type": "address"
        },
        {
          "indexed": true,
          "internalType": "uint256",
          "name": "tokenId",
          "type": "uint256"
        }
      ],
      "name": "Transfer",
      "type": "event"
    },
    {
      "inputs": [
        {
          "internalType": "address",
          "name": "to",
          "type": "address"
        },
        {
          "internalType": "uint256",
          "name": "tokenId",
          "type": "uint256"
        }
      ],
      "name": "approve",
      "outputs": [],
      "stateMutability": "nonpayable",
      "type": "function"
    },
    {
      "inputs": [
        {
          "internalType": "address",
          "name": "owner",
          "type": "address"
        }
      ],
      "name": "balanceOf",
      "outputs": [
        {
          "internalType": "uint256",
          "name": "",
          "type": "uint256"
        }
      ],
      "stateMutability": "view",
      "type": "function"
    },
    {
      "inputs": [
        {
          "internalType": "uint256",
          "name": "tokenId",
          "type": "uint256"
        }
      ],
      "name": "getApproved",
      "outputs": [
        {
          "internalType": "address",
          "name": "",
          "type": "address"
        }
      ],
      "stateMutability": "view",
      "type": "function"
    },
    {
      "inputs": [],
      "name": "getCount",
      "outputs": [
        {
          "internalType": "uint256",
          "name": "",
          "type": "uint256"
        }
      ],
      "stateMutability": "view",
      "type": "function"
    },
    {
      "inputs": [
        {
          "internalType": "uint256",
          "name": "tokenId",
          "type": "uint256"
        }
      ],
      "name": "getTokenCompanySponsor",
      "outputs": [
        {
          "internalType": "string",
          "name": "",
          "type": "string"
        }
      ],
      "stateMutability": "view",
      "type": "function"
    },
    {
      "inputs": [
        {
          "internalType": "uint256",
          "name": "tokenId",
          "type": "uint256"
        }
      ],
      "name": "getTokenDescription",
      "outputs": [
        {
          "internalType": "string",
          "name": "",
          "type": "string"
        }
      ],
      "stateMutability": "view",
      "type": "function"
    },
    {
      "inputs": [
        {
          "internalType": "uint256",
          "name": "tokenId",
          "type": "uint256"
        }
      ],
      "name": "getTokenImage",
      "outputs": [
        {
          "internalType": "string",
          "name": "",
          "type": "string"
        }
      ],
      "stateMutability": "view",
      "type": "function"
    },
    {
      "inputs": [
        {
          "internalType": "address",
          "name": "owner",
          "type": "address"
        },
        {
          "internalType": "address",
          "name": "operator",
          "type": "address"
        }
      ],
      "name": "isApprovedForAll",
      "outputs": [
        {
          "internalType": "bool",
          "name": "",
          "type": "bool"
        }
      ],
      "stateMutability": "view",
      "type": "function"
    },
    {
      "inputs": [
        {
          "internalType": "address",
          "name": "to",
          "type": "address"
        },
        {
          "internalType": "string",
          "name": "description",
          "type": "string"
        },
        {
          "internalType": "string",
          "name": "image",
          "type": "string"
        },
        {
          "internalType": "string",
          "name": "company",
          "type": "string"
        }
      ],
      "name": "mint",
      "outputs": [],
      "stateMutability": "nonpayable",
      "type": "function"
    },
    {
      "inputs": [],
      "name": "name",
      "outputs": [
        {
          "internalType": "string",
          "name": "",
          "type": "string"
        }
      ],
      "stateMutability": "view",
      "type": "function"
    },
    {
      "inputs": [
        {
          "internalType": "uint256",
          "name": "tokenId",
          "type": "uint256"
        }
      ],
      "name": "ownerOf",
      "outputs": [
        {
          "internalType": "address",
          "name": "",
          "type": "address"
        }
      ],
      "stateMutability": "view",
      "type": "function"
    },
    {
      "inputs": [
        {
          "internalType": "address",
          "name": "from",
          "type": "address"
        },
        {
          "internalType": "address",
          "name": "to",
          "type": "address"
        },
        {
          "internalType": "uint256",
          "name": "tokenId",
          "type": "uint256"
        }
      ],
      "name": "safeTransferFrom",
      "outputs": [],
      "stateMutability": "nonpayable",
      "type": "function"
    },
    {
      "inputs": [
        {
          "internalType": "address",
          "name": "from",
          "type": "address"
        },
        {
          "internalType": "address",
          "name": "to",
          "type": "address"
        },
        {
          "internalType": "uint256",
          "name": "tokenId",
          "type": "uint256"
        },
        {
          "internalType": "bytes",
          "name": "data",
          "type": "bytes"
        }
      ],
      "name": "safeTransferFrom",
      "outputs": [],
      "stateMutability": "nonpayable",
      "type": "function"
    },
    {
      "inputs": [
        {
          "internalType": "address",
          "name": "operator",
          "type": "address"
        },
        {
          "internalType": "bool",
          "name": "approved",
          "type": "bool"
        }
      ],
      "name": "setApprovalForAll",
      "outputs": [],
      "stateMutability": "nonpayable",
      "type": "function"
    },
    {
      "inputs": [
        {
          "internalType": "bytes4",
          "name": "interfaceId",
          "type": "bytes4"
        }
      ],
      "name": "supportsInterface",
      "outputs": [
        {
          "internalType": "bool",
          "name": "",
          "type": "bool"
        }
      ],
      "stateMutability": "view",
      "type": "function"
    },
    {
      "inputs": [],
      "name": "symbol",
      "outputs": [
        {
          "internalType": "string",
          "name": "",
          "type": "string"
        }
      ],
      "stateMutability": "view",
      "type": "function"
    },
    {
      "inputs": [],
      "name": "tokenCounter",
      "outputs": [
        {
          "internalType": "uint256",
          "name": "",
          "type": "uint256"
        }
      ],
      "stateMutability": "view",
      "type": "function"
    },
    {
      "inputs": [
        {
          "internalType": "uint256",
          "name": "",
          "type": "uint256"
        }
      ],
      "name": "tokenIdToCompanySponsor",
      "outputs": [
        {
          "internalType": "string",
          "name": "",
          "type": "string"
        }
      ],
      "stateMutability": "view",
      "type": "function"
    },
    {
      "inputs": [
        {
          "internalType": "uint256",
          "name": "",
          "type": "uint256"
        }
      ],
      "name": "tokenIdToDescription",
      "outputs": [
        {
          "internalType": "string",
          "name": "",
          "type": "string"
        }
      ],
      "stateMutability": "view",
      "type": "function"
    },
    {
      "inputs": [
        {
          "internalType": "uint256",
          "name": "",
          "type": "uint256"
        }
      ],
      "name": "tokenIdToImage",
      "outputs": [
        {
          "internalType": "string",
          "name": "",
          "type": "string"
        }
      ],
      "stateMutability": "view",
      "type": "function"
    },
    {
      "inputs": [
        {
          "internalType": "uint256",
          "name": "tokenId",
          "type": "uint256"
        }
      ],
      "name": "tokenURI",
      "outputs": [
        {
          "internalType": "string",
          "name": "",
          "type": "string"
        }
      ],
      "stateMutability": "view",
      "type": "function"
    },
    {
      "inputs": [
        {
          "internalType": "address",
          "name": "from",
          "type": "address"
        },
        {
          "internalType": "address",
          "name": "to",
          "type": "address"
        },
        {
          "internalType": "uint256",
          "name": "tokenId",
          "type": "uint256"
        }
      ],
      "name": "transferFrom",
      "outputs": [],
      "stateMutability": "nonpayable",
      "type": "function"
    }
  ],
  "bytecode": "0x608060405260016009553480156200001657600080fd5b506040518060400160405280600b81526020017f436f696e547265654e46540000000000000000000000000000000000000000008152506040518060400160405280600581526020017f43544e465400000000000000000000000000000000000000000000000000000081525081600090805190602001906200009b929190620000bd565b508060019080519060200190620000b4929190620000bd565b505050620001d2565b828054620000cb906200019c565b90600052602060002090601f016020900481019282620000ef57600085556200013b565b82601f106200010a57805160ff19168380011785556200013b565b828001600101855582156200013b579182015b828111156200013a5782518255916020019190600101906200011d565b5b5090506200014a91906200014e565b5090565b5b80821115620001695760008160009055506001016200014f565b5090565b7f4e487b7100000000000000000000000000000000000000000000000000000000600052602260045260246000fd5b60006002820490506001821680620001b557607f821691505b60208210811415620001cc57620001cb6200016d565b5b50919050565b612d3280620001e26000396000f3fe608060405234801561001057600080fd5b50600436106101425760003560e01c806370a08231116100b8578063b3154c081161007c578063b3154c08146103ad578063b88d4fde146103dd578063c87b56dd146103f9578063c8df116614610429578063d082e38114610459578063e985e9c51461047757610142565b806370a08231146102f557806371f0442e1461032557806395d89b4114610355578063a22cb46514610373578063a87d942c1461038f57610142565b806315859c711161010a57806315859c711461021157806323b872dd1461024157806342842e0e1461025d5780634a0706be1461027957806353434a16146102955780636352211e146102c557610142565b806301ffc9a71461014757806306fdde0314610177578063081812fc14610195578063095ea7b3146101c557806310795dcc146101e1575b600080fd5b610161600480360381019061015c9190611d35565b6104a7565b60405161016e9190611d7d565b60405180910390f35b61017f610589565b60405161018c9190611e31565b60405180910390f35b6101af60048036038101906101aa9190611e89565b61061b565b6040516101bc9190611ef7565b60405180910390f35b6101df60048036038101906101da9190611f3e565b610661565b005b6101fb60048036038101906101f69190611e89565b610779565b6040516102089190611e31565b60405180910390f35b61022b60048036038101906102269190611e89565b610819565b6040516102389190611e31565b60405180910390f35b61025b60048036038101906102569190611f7e565b6108be565b005b61027760048036038101906102729190611f7e565b61091e565b005b610293600480360381019061028e9190612106565b61093e565b005b6102af60048036038101906102aa9190611e89565b6109e6565b6040516102bc9190611e31565b60405180910390f35b6102df60048036038101906102da9190611e89565b610a86565b6040516102ec9190611ef7565b60405180910390f35b61030f600480360381019061030a91906121c1565b610b38565b60405161031c91906121fd565b60405180910390f35b61033f600480360381019061033a9190611e89565b610bf0565b60405161034c9190611e31565b60405180910390f35b61035d610c95565b60405161036a9190611e31565b60405180910390f35b61038d60048036038101906103889190612244565b610d27565b005b610397610d3d565b6040516103a491906121fd565b60405180910390f35b6103c760048036038101906103c29190611e89565b610d47565b6040516103d49190611e31565b60405180910390f35b6103f760048036038101906103f29190612325565b610dec565b005b610413600480360381019061040e9190611e89565b610e4e565b6040516104209190611e31565b60405180910390f35b610443600480360381019061043e9190611e89565b610eb6565b6040516104509190611e31565b60405180910390f35b610461610f56565b60405161046e91906121fd565b60405180910390f35b610491600480360381019061048c91906123a8565b610f5c565b60405161049e9190611d7d565b60405180910390f35b60007f80ac58cd000000000000000000000000000000000000000000000000000000007bffffffffffffffffffffffffffffffffffffffffffffffffffffffff1916827bffffffffffffffffffffffffffffffffffffffffffffffffffffffff1916148061057257507f5b5e139f000000000000000000000000000000000000000000000000000000007bffffffffffffffffffffffffffffffffffffffffffffffffffffffff1916827bffffffffffffffffffffffffffffffffffffffffffffffffffffffff1916145b80610582575061058182610ff0565b5b9050919050565b60606000805461059890612417565b80601f01602080910402602001604051908101604052809291908181526020018280546105c490612417565b80156106115780601f106105e657610100808354040283529160200191610611565b820191906000526020600020905b8154815290600101906020018083116105f457829003601f168201915b5050505050905090565b60006106268261105a565b6004600083815260200190815260200160002060009054906101000a900473ffffffffffffffffffffffffffffffffffffffff169050919050565b600061066c82610a86565b90508073ffffffffffffffffffffffffffffffffffffffff168373ffffffffffffffffffffffffffffffffffffffff1614156106dd576040517f08c379a00000000000000000000000000000000000000000000000000000000081526004016106d4906124bb565b60405180910390fd5b8073ffffffffffffffffffffffffffffffffffffffff166106fc6110a5565b73ffffffffffffffffffffffffffffffffffffffff16148061072b575061072a816107256110a5565b610f5c565b5b61076a576040517f08c379a00000000000000000000000000000000000000000000000000000000081526004016107619061254d565b60405180910390fd5b61077483836110ad565b505050565b6007602052806000526040600020600091509050805461079890612417565b80601f01602080910402602001604051908101604052809291908181526020018280546107c490612417565b80156108115780601f106107e657610100808354040283529160200191610811565b820191906000526020600020905b8154815290600101906020018083116107f457829003601f168201915b505050505081565b606060086000838152602001908152602001600020805461083990612417565b80601f016020809104026020016040519081016040528092919081815260200182805461086590612417565b80156108b25780601f10610887576101008083540402835291602001916108b2565b820191906000526020600020905b81548152906001019060200180831161089557829003601f168201915b50505050509050919050565b6108cf6108c96110a5565b82611166565b61090e576040517f08c379a0000000000000000000000000000000000000000000000000000000008152600401610905906125df565b60405180910390fd5b6109198383836111fb565b505050565b61093983838360405180602001604052806000815250610dec565b505050565b61094a84600954611462565b6009600081548092919061095d9061262e565b919050555082600660006009548152602001908152602001600020908051906020019061098b929190611c26565b508160076000600954815260200190815260200160002090805190602001906109b5929190611c26565b508060086000600954815260200190815260200160002090805190602001906109df929190611c26565b5050505050565b60086020528060005260406000206000915090508054610a0590612417565b80601f0160208091040260200160405190810160405280929190818152602001828054610a3190612417565b8015610a7e5780601f10610a5357610100808354040283529160200191610a7e565b820191906000526020600020905b815481529060010190602001808311610a6157829003601f168201915b505050505081565b6000806002600084815260200190815260200160002060009054906101000a900473ffffffffffffffffffffffffffffffffffffffff169050600073ffffffffffffffffffffffffffffffffffffffff168173ffffffffffffffffffffffffffffffffffffffff161415610b2f576040517f08c379a0000000000000000000000000000000000000000000000000000000008152600401610b26906126c3565b60405180910390fd5b80915050919050565b60008073ffffffffffffffffffffffffffffffffffffffff168273ffffffffffffffffffffffffffffffffffffffff161415610ba9576040517f08c379a0000000000000000000000000000000000000000000000000000000008152600401610ba090612755565b60405180910390fd5b600360008373ffffffffffffffffffffffffffffffffffffffff1673ffffffffffffffffffffffffffffffffffffffff168152602001908152602001600020549050919050565b6060600760008381526020019081526020016000208054610c1090612417565b80601f0160208091040260200160405190810160405280929190818152602001828054610c3c90612417565b8015610c895780601f10610c5e57610100808354040283529160200191610c89565b820191906000526020600020905b815481529060010190602001808311610c6c57829003601f168201915b50505050509050919050565b606060018054610ca490612417565b80601f0160208091040260200160405190810160405280929190818152602001828054610cd090612417565b8015610d1d5780601f10610cf257610100808354040283529160200191610d1d565b820191906000526020600020905b815481529060010190602001808311610d0057829003601f168201915b5050505050905090565b610d39610d326110a5565b8383611480565b5050565b6000600954905090565b6060600660008381526020019081526020016000208054610d6790612417565b80601f0160208091040260200160405190810160405280929190818152602001828054610d9390612417565b8015610de05780601f10610db557610100808354040283529160200191610de0565b820191906000526020600020905b815481529060010190602001808311610dc357829003601f168201915b50505050509050919050565b610dfd610df76110a5565b83611166565b610e3c576040517f08c379a0000000000000000000000000000000000000000000000000000000008152600401610e33906125df565b60405180910390fd5b610e48848484846115ed565b50505050565b6060610e598261105a565b6000610e63611649565b90506000815111610e835760405180602001604052806000815250610eae565b80610e8d84611660565b604051602001610e9e9291906127b1565b6040516020818303038152906040525b915050919050565b60066020528060005260406000206000915090508054610ed590612417565b80601f0160208091040260200160405190810160405280929190818152602001828054610f0190612417565b8015610f4e5780601f10610f2357610100808354040283529160200191610f4e565b820191906000526020600020905b815481529060010190602001808311610f3157829003601f168201915b505050505081565b60095481565b6000600560008473ffffffffffffffffffffffffffffffffffffffff1673ffffffffffffffffffffffffffffffffffffffff16815260200190815260200160002060008373ffffffffffffffffffffffffffffffffffffffff1673ffffffffffffffffffffffffffffffffffffffff16815260200190815260200160002060009054906101000a900460ff16905092915050565b60007f01ffc9a7000000000000000000000000000000000000000000000000000000007bffffffffffffffffffffffffffffffffffffffffffffffffffffffff1916827bffffffffffffffffffffffffffffffffffffffffffffffffffffffff1916149050919050565b611063816117c1565b6110a2576040517f08c379a0000000000000000000000000000000000000000000000000000000008152600401611099906126c3565b60405180910390fd5b50565b600033905090565b816004600083815260200190815260200160002060006101000a81548173ffffffffffffffffffffffffffffffffffffffff021916908373ffffffffffffffffffffffffffffffffffffffff160217905550808273ffffffffffffffffffffffffffffffffffffffff1661112083610a86565b73ffffffffffffffffffffffffffffffffffffffff167f8c5be1e5ebec7d5bd14f71427d1e84f3dd0314c0f7b2291e5b200ac8c7c3b92560405160405180910390a45050565b60008061117283610a86565b90508073ffffffffffffffffffffffffffffffffffffffff168473ffffffffffffffffffffffffffffffffffffffff1614806111b457506111b38185610f5c565b5b806111f257508373ffffffffffffffffffffffffffffffffffffffff166111da8461061b565b73ffffffffffffffffffffffffffffffffffffffff16145b91505092915050565b8273ffffffffffffffffffffffffffffffffffffffff1661121b82610a86565b73ffffffffffffffffffffffffffffffffffffffff1614611271576040517f08c379a000000000000000000000000000000000000000000000000000000000815260040161126890612847565b60405180910390fd5b600073ffffffffffffffffffffffffffffffffffffffff168273ffffffffffffffffffffffffffffffffffffffff1614156112e1576040517f08c379a00000000000000000000000000000000000000000000000000000000081526004016112d8906128d9565b60405180910390fd5b6112ec83838361182d565b6112f76000826110ad565b6001600360008573ffffffffffffffffffffffffffffffffffffffff1673ffffffffffffffffffffffffffffffffffffffff168152602001908152602001600020600082825461134791906128f9565b925050819055506001600360008473ffffffffffffffffffffffffffffffffffffffff1673ffffffffffffffffffffffffffffffffffffffff168152602001908152602001600020600082825461139e919061292d565b92505081905550816002600083815260200190815260200160002060006101000a81548173ffffffffffffffffffffffffffffffffffffffff021916908373ffffffffffffffffffffffffffffffffffffffff160217905550808273ffffffffffffffffffffffffffffffffffffffff168473ffffffffffffffffffffffffffffffffffffffff167fddf252ad1be2c89b69c2b068fc378daa952ba7f163c4a11628f55a4df523b3ef60405160405180910390a461145d838383611832565b505050565b61147c828260405180602001604052806000815250611837565b5050565b8173ffffffffffffffffffffffffffffffffffffffff168373ffffffffffffffffffffffffffffffffffffffff1614156114ef576040517f08c379a00000000000000000000000000000000000000000000000000000000081526004016114e6906129cf565b60405180910390fd5b80600560008573ffffffffffffffffffffffffffffffffffffffff1673ffffffffffffffffffffffffffffffffffffffff16815260200190815260200160002060008473ffffffffffffffffffffffffffffffffffffffff1673ffffffffffffffffffffffffffffffffffffffff16815260200190815260200160002060006101000a81548160ff0219169083151502179055508173ffffffffffffffffffffffffffffffffffffffff168373ffffffffffffffffffffffffffffffffffffffff167f17307eab39ab6107e8899845ad3d59bd9653f200f220920489ca2b5937696c31836040516115e09190611d7d565b60405180910390a3505050565b6115f88484846111fb565b61160484848484611892565b611643576040517f08c379a000000000000000000000000000000000000000000000000000000000815260040161163a90612a61565b60405180910390fd5b50505050565b606060405180602001604052806000815250905090565b606060008214156116a8576040518060400160405280600181526020017f300000000000000000000000000000000000000000000000000000000000000081525090506117bc565b600082905060005b600082146116da5780806116c39061262e565b915050600a826116d39190612ab0565b91506116b0565b60008167ffffffffffffffff8111156116f6576116f5611fdb565b5b6040519080825280601f01601f1916602001820160405280156117285781602001600182028036833780820191505090505b5090505b600085146117b55760018261174191906128f9565b9150600a856117509190612ae1565b603061175c919061292d565b60f81b81838151811061177257611771612b12565b5b60200101907effffffffffffffffffffffffffffffffffffffffffffffffffffffffffffff1916908160001a905350600a856117ae9190612ab0565b945061172c565b8093505050505b919050565b60008073ffffffffffffffffffffffffffffffffffffffff166002600084815260200190815260200160002060009054906101000a900473ffffffffffffffffffffffffffffffffffffffff1673ffffffffffffffffffffffffffffffffffffffff1614159050919050565b505050565b505050565b6118418383611a29565b61184e6000848484611892565b61188d576040517f08c379a000000000000000000000000000000000000000000000000000000000815260040161188490612a61565b60405180910390fd5b505050565b60006118b38473ffffffffffffffffffffffffffffffffffffffff16611c03565b15611a1c578373ffffffffffffffffffffffffffffffffffffffff1663150b7a026118dc6110a5565b8786866040518563ffffffff1660e01b81526004016118fe9493929190612b96565b602060405180830381600087803b15801561191857600080fd5b505af192505050801561194957506040513d601f19601f820116820180604052508101906119469190612bf7565b60015b6119cc573d8060008114611979576040519150601f19603f3d011682016040523d82523d6000602084013e61197e565b606091505b506000815114156119c4576040517f08c379a00000000000000000000000000000000000000000000000000000000081526004016119bb90612a61565b60405180910390fd5b805181602001fd5b63150b7a0260e01b7bffffffffffffffffffffffffffffffffffffffffffffffffffffffff1916817bffffffffffffffffffffffffffffffffffffffffffffffffffffffff191614915050611a21565b600190505b949350505050565b600073ffffffffffffffffffffffffffffffffffffffff168273ffffffffffffffffffffffffffffffffffffffff161415611a99576040517f08c379a0000000000000000000000000000000000000000000000000000000008152600401611a9090612c70565b60405180910390fd5b611aa2816117c1565b15611ae2576040517f08c379a0000000000000000000000000000000000000000000000000000000008152600401611ad990612cdc565b60405180910390fd5b611aee6000838361182d565b6001600360008473ffffffffffffffffffffffffffffffffffffffff1673ffffffffffffffffffffffffffffffffffffffff1681526020019081526020016000206000828254611b3e919061292d565b92505081905550816002600083815260200190815260200160002060006101000a81548173ffffffffffffffffffffffffffffffffffffffff021916908373ffffffffffffffffffffffffffffffffffffffff160217905550808273ffffffffffffffffffffffffffffffffffffffff16600073ffffffffffffffffffffffffffffffffffffffff167fddf252ad1be2c89b69c2b068fc378daa952ba7f163c4a11628f55a4df523b3ef60405160405180910390a4611bff60008383611832565b5050565b6000808273ffffffffffffffffffffffffffffffffffffffff163b119050919050565b828054611c3290612417565b90600052602060002090601f016020900481019282611c545760008555611c9b565b82601f10611c6d57805160ff1916838001178555611c9b565b82800160010185558215611c9b579182015b82811115611c9a578251825591602001919060010190611c7f565b5b509050611ca89190611cac565b5090565b5b80821115611cc5576000816000905550600101611cad565b5090565b6000604051905090565b600080fd5b600080fd5b60007fffffffff0000000000000000000000000000000000000000000000000000000082169050919050565b611d1281611cdd565b8114611d1d57600080fd5b50565b600081359050611d2f81611d09565b92915050565b600060208284031215611d4b57611d4a611cd3565b5b6000611d5984828501611d20565b91505092915050565b60008115159050919050565b611d7781611d62565b82525050565b6000602082019050611d926000830184611d6e565b92915050565b600081519050919050565b600082825260208201905092915050565b60005b83811015611dd2578082015181840152602081019050611db7565b83811115611de1576000848401525b50505050565b6000601f19601f8301169050919050565b6000611e0382611d98565b611e0d8185611da3565b9350611e1d818560208601611db4565b611e2681611de7565b840191505092915050565b60006020820190508181036000830152611e4b8184611df8565b905092915050565b6000819050919050565b611e6681611e53565b8114611e7157600080fd5b50565b600081359050611e8381611e5d565b92915050565b600060208284031215611e9f57611e9e611cd3565b5b6000611ead84828501611e74565b91505092915050565b600073ffffffffffffffffffffffffffffffffffffffff82169050919050565b6000611ee182611eb6565b9050919050565b611ef181611ed6565b82525050565b6000602082019050611f0c6000830184611ee8565b92915050565b611f1b81611ed6565b8114611f2657600080fd5b50565b600081359050611f3881611f12565b92915050565b60008060408385031215611f5557611f54611cd3565b5b6000611f6385828601611f29565b9250506020611f7485828601611e74565b9150509250929050565b600080600060608486031215611f9757611f96611cd3565b5b6000611fa586828701611f29565b9350506020611fb686828701611f29565b9250506040611fc786828701611e74565b9150509250925092565b600080fd5b600080fd5b7f4e487b7100000000000000000000000000000000000000000000000000000000600052604160045260246000fd5b61201382611de7565b810181811067ffffffffffffffff8211171561203257612031611fdb565b5b80604052505050565b6000612045611cc9565b9050612051828261200a565b919050565b600067ffffffffffffffff82111561207157612070611fdb565b5b61207a82611de7565b9050602081019050919050565b82818337600083830152505050565b60006120a96120a484612056565b61203b565b9050828152602081018484840111156120c5576120c4611fd6565b5b6120d0848285612087565b509392505050565b600082601f8301126120ed576120ec611fd1565b5b81356120fd848260208601612096565b91505092915050565b600080600080608085870312156121205761211f611cd3565b5b600061212e87828801611f29565b945050602085013567ffffffffffffffff81111561214f5761214e611cd8565b5b61215b878288016120d8565b935050604085013567ffffffffffffffff81111561217c5761217b611cd8565b5b612188878288016120d8565b925050606085013567ffffffffffffffff8111156121a9576121a8611cd8565b5b6121b5878288016120d8565b91505092959194509250565b6000602082840312156121d7576121d6611cd3565b5b60006121e584828501611f29565b91505092915050565b6121f781611e53565b82525050565b600060208201905061221260008301846121ee565b92915050565b61222181611d62565b811461222c57600080fd5b50565b60008135905061223e81612218565b92915050565b6000806040838503121561225b5761225a611cd3565b5b600061226985828601611f29565b925050602061227a8582860161222f565b9150509250929050565b600067ffffffffffffffff82111561229f5761229e611fdb565b5b6122a882611de7565b9050602081019050919050565b60006122c86122c384612284565b61203b565b9050828152602081018484840111156122e4576122e3611fd6565b5b6122ef848285612087565b509392505050565b600082601f83011261230c5761230b611fd1565b5b813561231c8482602086016122b5565b91505092915050565b6000806000806080858703121561233f5761233e611cd3565b5b600061234d87828801611f29565b945050602061235e87828801611f29565b935050604061236f87828801611e74565b925050606085013567ffffffffffffffff8111156123905761238f611cd8565b5b61239c878288016122f7565b91505092959194509250565b600080604083850312156123bf576123be611cd3565b5b60006123cd85828601611f29565b92505060206123de85828601611f29565b9150509250929050565b7f4e487b7100000000000000000000000000000000000000000000000000000000600052602260045260246000fd5b6000600282049050600182168061242f57607f821691505b60208210811415612443576124426123e8565b5b50919050565b7f4552433732313a20617070726f76616c20746f2063757272656e74206f776e6560008201527f7200000000000000000000000000000000000000000000000000000000000000602082015250565b60006124a5602183611da3565b91506124b082612449565b604082019050919050565b600060208201905081810360008301526124d481612498565b9050919050565b7f4552433732313a20617070726f76652063616c6c6572206973206e6f7420746f60008201527f6b656e206f776e6572206e6f7220617070726f76656420666f7220616c6c0000602082015250565b6000612537603e83611da3565b9150612542826124db565b604082019050919050565b600060208201905081810360008301526125668161252a565b9050919050565b7f4552433732313a2063616c6c6572206973206e6f7420746f6b656e206f776e6560008201527f72206e6f7220617070726f766564000000000000000000000000000000000000602082015250565b60006125c9602e83611da3565b91506125d48261256d565b604082019050919050565b600060208201905081810360008301526125f8816125bc565b9050919050565b7f4e487b7100000000000000000000000000000000000000000000000000000000600052601160045260246000fd5b600061263982611e53565b91507fffffffffffffffffffffffffffffffffffffffffffffffffffffffffffffffff82141561266c5761266b6125ff565b5b600182019050919050565b7f4552433732313a20696e76616c696420746f6b656e2049440000000000000000600082015250565b60006126ad601883611da3565b91506126b882612677565b602082019050919050565b600060208201905081810360008301526126dc816126a0565b9050919050565b7f4552433732313a2061646472657373207a65726f206973206e6f74206120766160008201527f6c6964206f776e65720000000000000000000000000000000000000000000000602082015250565b600061273f602983611da3565b915061274a826126e3565b604082019050919050565b6000602082019050818103600083015261276e81612732565b9050919050565b600081905092915050565b600061278b82611d98565b6127958185612775565b93506127a5818560208601611db4565b80840191505092915050565b60006127bd8285612780565b91506127c98284612780565b91508190509392505050565b7f4552433732313a207472616e736665722066726f6d20696e636f72726563742060008201527f6f776e6572000000000000000000000000000000000000000000000000000000602082015250565b6000612831602583611da3565b915061283c826127d5565b604082019050919050565b6000602082019050818103600083015261286081612824565b9050919050565b7f4552433732313a207472616e7366657220746f20746865207a65726f2061646460008201527f7265737300000000000000000000000000000000000000000000000000000000602082015250565b60006128c3602483611da3565b91506128ce82612867565b604082019050919050565b600060208201905081810360008301526128f2816128b6565b9050919050565b600061290482611e53565b915061290f83611e53565b925082821015612922576129216125ff565b5b828203905092915050565b600061293882611e53565b915061294383611e53565b9250827fffffffffffffffffffffffffffffffffffffffffffffffffffffffffffffffff03821115612978576129776125ff565b5b828201905092915050565b7f4552433732313a20617070726f766520746f2063616c6c657200000000000000600082015250565b60006129b9601983611da3565b91506129c482612983565b602082019050919050565b600060208201905081810360008301526129e8816129ac565b9050919050565b7f4552433732313a207472616e7366657220746f206e6f6e20455243373231526560008201527f63656976657220696d706c656d656e7465720000000000000000000000000000602082015250565b6000612a4b603283611da3565b9150612a56826129ef565b604082019050919050565b60006020820190508181036000830152612a7a81612a3e565b9050919050565b7f4e487b7100000000000000000000000000000000000000000000000000000000600052601260045260246000fd5b6000612abb82611e53565b9150612ac683611e53565b925082612ad657612ad5612a81565b5b828204905092915050565b6000612aec82611e53565b9150612af783611e53565b925082612b0757612b06612a81565b5b828206905092915050565b7f4e487b7100000000000000000000000000000000000000000000000000000000600052603260045260246000fd5b600081519050919050565b600082825260208201905092915050565b6000612b6882612b41565b612b728185612b4c565b9350612b82818560208601611db4565b612b8b81611de7565b840191505092915050565b6000608082019050612bab6000830187611ee8565b612bb86020830186611ee8565b612bc560408301856121ee565b8181036060830152612bd78184612b5d565b905095945050505050565b600081519050612bf181611d09565b92915050565b600060208284031215612c0d57612c0c611cd3565b5b6000612c1b84828501612be2565b91505092915050565b7f4552433732313a206d696e7420746f20746865207a65726f2061646472657373600082015250565b6000612c5a602083611da3565b9150612c6582612c24565b602082019050919050565b60006020820190508181036000830152612c8981612c4d565b9050919050565b7f4552433732313a20746f6b656e20616c7265616479206d696e74656400000000600082015250565b6000612cc6601c83611da3565b9150612cd182612c90565b602082019050919050565b60006020820190508181036000830152612cf581612cb9565b905091905056fea2646970667358221220794924e8829425b29daf2df30842223d92ebe5348216edde9422ca5c71479e3064736f6c63430008090033",
  "linkReferences": {},
  "deployedLinkReferences": {}
}