{
  "_format": "hh-sol-artifact-1",
  "contractName": "Vault",
  "sourceName": "contracts/Vault.sol",
  "abi": [
    {
      "inputs": [],
      "stateMutability": "nonpayable",
      "type": "constructor"
    },
    {
      "inputs": [
        {
          "internalType": "string",
          "name": "",
          "type": "string"
        }
      ],
      "name": "balances",
      "outputs": [
        {
          "internalType": "uint256",
          "name": "",
          "type": "uint256"
        }
      ],
      "stateMutability": "view",
      "type": "function"
    },
    {
      "inputs": [
        {
          "internalType": "string",
          "name": "name",
          "type": "string"
        }
      ],
      "name": "createCompany",
      "outputs": [],
      "stateMutability": "payable",
      "type": "function"
    },
    {
      "inputs": [
        {
          "internalType": "string",
          "name": "name",
          "type": "string"
        }
      ],
      "name": "deposit",
      "outputs": [],
      "stateMutability": "payable",
      "type": "function"
    },
    {
      "inputs": [
        {
          "internalType": "uint256",
          "name": "amount",
          "type": "uint256"
        },
        {
          "internalType": "string",
          "name": "name",
          "type": "string"
        }
      ],
      "name": "distribute",
      "outputs": [],
      "stateMutability": "nonpayable",
      "type": "function"
    },
    {
      "inputs": [
        {
          "internalType": "string",
          "name": "name",
          "type": "string"
        }
      ],
      "name": "getBalanceByName",
      "outputs": [
        {
          "internalType": "uint256",
          "name": "",
          "type": "uint256"
        }
      ],
      "stateMutability": "view",
      "type": "function"
    },
    {
      "inputs": [],
      "name": "getCompanies",
      "outputs": [
        {
          "internalType": "string[]",
          "name": "",
          "type": "string[]"
        }
      ],
      "stateMutability": "view",
      "type": "function"
    },
    {
      "inputs": [],
      "name": "getContractBalance",
      "outputs": [
        {
          "internalType": "uint256",
          "name": "",
          "type": "uint256"
        }
      ],
      "stateMutability": "view",
      "type": "function"
    },
    {
      "stateMutability": "payable",
      "type": "receive"
    }
  ],
  "bytecode": "0x6080604052600060025534801561001557600080fd5b50610a13806100256000396000f3fe6080604052600436106100745760003560e01c806389ad70401161004e57806389ad704014610113578063a26e11861461013c578063ca1ae01c14610158578063fd7f611e146101955761007b565b80630c0b6691146100805780632afd97a4146100ab5780636f9fb98a146100e85761007b565b3661007b57005b600080fd5b34801561008c57600080fd5b506100956101b1565b6040516100a29190610600565b60405180910390f35b3480156100b757600080fd5b506100d260048036038101906100cd919061076b565b61028a565b6040516100df91906107cd565b60405180910390f35b3480156100f457600080fd5b506100fd6102b8565b60405161010a91906107cd565b60405180910390f35b34801561011f57600080fd5b5061013a60048036038101906101359190610814565b6102c0565b005b6101566004803603810190610151919061076b565b610340565b005b34801561016457600080fd5b5061017f600480360381019061017a919061076b565b610378565b60405161018c91906107cd565b60405180910390f35b6101af60048036038101906101aa919061076b565b6103a0565b005b60606000805480602002602001604051908101604052809291908181526020016000905b828210156102815783829060005260206000200180546101f49061089f565b80601f01602080910402602001604051908101604052809291908181526020018280546102209061089f565b801561026d5780601f106102425761010080835404028352916020019161026d565b820191906000526020600020905b81548152906001019060200180831161025057829003601f168201915b5050505050815260200190600101906101d5565b50505050905090565b6001818051602081018201805184825260208301602085012081835280955050505050506000915090505481565b600047905090565b816001826040516102d1919061090d565b908152602001604051809103902060008282546102ee9190610953565b925050819055503373ffffffffffffffffffffffffffffffffffffffff166108fc839081150290604051600060405180830381858888f1935050505015801561033b573d6000803e3d6000fd5b505050565b34600182604051610351919061090d565b9081526020016040518091039020600082825461036e9190610987565b9250508190555050565b600060018260405161038a919061090d565b9081526020016040518091039020549050919050565b6000819080600181540180825580915050600190039060005260206000200160009091909190915090805190602001906103db929190610402565b50346001826040516103ed919061090d565b90815260200160405180910390208190555050565b82805461040e9061089f565b90600052602060002090601f0160209004810192826104305760008555610477565b82601f1061044957805160ff1916838001178555610477565b82800160010185558215610477579182015b8281111561047657825182559160200191906001019061045b565b5b5090506104849190610488565b5090565b5b808211156104a1576000816000905550600101610489565b5090565b600081519050919050565b600082825260208201905092915050565b6000819050602082019050919050565b600081519050919050565b600082825260208201905092915050565b60005b8381101561050b5780820151818401526020810190506104f0565b8381111561051a576000848401525b50505050565b6000601f19601f8301169050919050565b600061053c826104d1565b61054681856104dc565b93506105568185602086016104ed565b61055f81610520565b840191505092915050565b60006105768383610531565b905092915050565b6000602082019050919050565b6000610596826104a5565b6105a081856104b0565b9350836020820285016105b2856104c1565b8060005b858110156105ee57848403895281516105cf858261056a565b94506105da8361057e565b925060208a019950506001810190506105b6565b50829750879550505050505092915050565b6000602082019050818103600083015261061a818461058b565b905092915050565b6000604051905090565b600080fd5b600080fd5b600080fd5b600080fd5b7f4e487b7100000000000000000000000000000000000000000000000000000000600052604160045260246000fd5b61067882610520565b810181811067ffffffffffffffff8211171561069757610696610640565b5b80604052505050565b60006106aa610622565b90506106b6828261066f565b919050565b600067ffffffffffffffff8211156106d6576106d5610640565b5b6106df82610520565b9050602081019050919050565b82818337600083830152505050565b600061070e610709846106bb565b6106a0565b90508281526020810184848401111561072a5761072961063b565b5b6107358482856106ec565b509392505050565b600082601f83011261075257610751610636565b5b81356107628482602086016106fb565b91505092915050565b6000602082840312156107815761078061062c565b5b600082013567ffffffffffffffff81111561079f5761079e610631565b5b6107ab8482850161073d565b91505092915050565b6000819050919050565b6107c7816107b4565b82525050565b60006020820190506107e260008301846107be565b92915050565b6107f1816107b4565b81146107fc57600080fd5b50565b60008135905061080e816107e8565b92915050565b6000806040838503121561082b5761082a61062c565b5b6000610839858286016107ff565b925050602083013567ffffffffffffffff81111561085a57610859610631565b5b6108668582860161073d565b9150509250929050565b7f4e487b7100000000000000000000000000000000000000000000000000000000600052602260045260246000fd5b600060028204905060018216806108b757607f821691505b602082108114156108cb576108ca610870565b5b50919050565b600081905092915050565b60006108e7826104d1565b6108f181856108d1565b93506109018185602086016104ed565b80840191505092915050565b600061091982846108dc565b915081905092915050565b7f4e487b7100000000000000000000000000000000000000000000000000000000600052601160045260246000fd5b600061095e826107b4565b9150610969836107b4565b92508282101561097c5761097b610924565b5b828203905092915050565b6000610992826107b4565b915061099d836107b4565b9250827fffffffffffffffffffffffffffffffffffffffffffffffffffffffffffffffff038211156109d2576109d1610924565b5b82820190509291505056fea264697066735822122098dd07149f909ee16a2d898b1b466d984f5cff5c3a2c57d672f7f097d6f09bc864736f6c63430008090033",
  "linkReferences": {},
  "deployedLinkReferences": {}
}