{
  "_format": "hh-sol-artifact-1",
  "contractName": "Vault",
  "sourceName": "contracts/Vault.sol",
  "abi": [
    {
      "inputs": [],
      "stateMutability": "nonpayable",
      "type": "constructor"
    },
    {
      "inputs": [
        {
          "internalType": "string",
          "name": "",
          "type": "string"
        }
      ],
      "name": "balances",
      "outputs": [
        {
          "internalType": "uint256",
          "name": "",
          "type": "uint256"
        }
      ],
      "stateMutability": "view",
      "type": "function"
    },
    {
      "inputs": [
        {
          "internalType": "string",
          "name": "",
          "type": "string"
        }
      ],
      "name": "companyToAddress",
      "outputs": [
        {
          "internalType": "address",
          "name": "",
          "type": "address"
        }
      ],
      "stateMutability": "view",
      "type": "function"
    },
    {
      "inputs": [
        {
          "internalType": "string",
          "name": "name",
          "type": "string"
        }
      ],
      "name": "createCompany",
      "outputs": [],
      "stateMutability": "payable",
      "type": "function"
    },
    {
      "inputs": [
        {
          "internalType": "string",
          "name": "name",
          "type": "string"
        }
      ],
      "name": "deposit",
      "outputs": [],
      "stateMutability": "payable",
      "type": "function"
    },
    {
      "inputs": [
        {
          "internalType": "string",
          "name": "name",
          "type": "string"
        },
        {
          "internalType": "address payable",
          "name": "receiver",
          "type": "address"
        }
      ],
      "name": "distribute",
      "outputs": [],
      "stateMutability": "payable",
      "type": "function"
    },
    {
      "inputs": [
        {
          "internalType": "string",
          "name": "name",
          "type": "string"
        }
      ],
      "name": "getBalanceByName",
      "outputs": [
        {
          "internalType": "uint256",
          "name": "",
          "type": "uint256"
        }
      ],
      "stateMutability": "view",
      "type": "function"
    },
    {
      "inputs": [],
      "name": "getCompanies",
      "outputs": [
        {
          "internalType": "string[]",
          "name": "",
          "type": "string[]"
        }
      ],
      "stateMutability": "view",
      "type": "function"
    },
    {
      "inputs": [
        {
          "internalType": "string",
          "name": "name",
          "type": "string"
        }
      ],
      "name": "getCompanyAddress",
      "outputs": [
        {
          "internalType": "address",
          "name": "",
          "type": "address"
        }
      ],
      "stateMutability": "view",
      "type": "function"
    },
    {
      "inputs": [],
      "name": "getContractBalance",
      "outputs": [
        {
          "internalType": "uint256",
          "name": "",
          "type": "uint256"
        }
      ],
      "stateMutability": "view",
      "type": "function"
    },
    {
      "stateMutability": "payable",
      "type": "receive"
    }
  ],
  "bytecode": "0x6080604052600060035534801561001557600080fd5b50610b89806100256000396000f3fe60806040526004361061008a5760003560e01c80636f9fb98a116100595780636f9fb98a14610157578063a26e118614610182578063ca1ae01c1461019e578063d6a16afa146101db578063fd7f611e1461021857610091565b80630c0b66911461009657806329751ba7146100c15780632afd97a4146100fe578063397addd51461013b57610091565b3661009157005b600080fd5b3480156100a257600080fd5b506100ab610234565b6040516100b8919061073c565b60405180910390f35b3480156100cd57600080fd5b506100e860048036038101906100e391906108a7565b61030d565b6040516100f59190610931565b60405180910390f35b34801561010a57600080fd5b50610125600480360381019061012091906108a7565b610356565b6040516101329190610965565b60405180910390f35b610155600480360381019061015091906109be565b610384565b005b34801561016357600080fd5b5061016c6103cf565b6040516101799190610965565b60405180910390f35b61019c600480360381019061019791906108a7565b6103d7565b005b3480156101aa57600080fd5b506101c560048036038101906101c091906108a7565b61040f565b6040516101d29190610965565b60405180910390f35b3480156101e757600080fd5b5061020260048036038101906101fd91906108a7565b610437565b60405161020f9190610931565b60405180910390f35b610232600480360381019061022d91906108a7565b61047f565b005b60606000805480602002602001604051908101604052809291908181526020016000905b8282101561030457838290600052602060002001805461027790610a49565b80601f01602080910402602001604051908101604052809291908181526020018280546102a390610a49565b80156102f05780601f106102c5576101008083540402835291602001916102f0565b820191906000526020600020905b8154815290600101906020018083116102d357829003601f168201915b505050505081526020019060010190610258565b50505050905090565b6002818051602081018201805184825260208301602085012081835280955050505050506000915054906101000a900473ffffffffffffffffffffffffffffffffffffffff1681565b6001818051602081018201805184825260208301602085012081835280955050505050506000915090505481565b8073ffffffffffffffffffffffffffffffffffffffff166108fc349081150290604051600060405180830381858888f193505050501580156103ca573d6000803e3d6000fd5b505050565b600047905090565b346001826040516103e89190610ab7565b908152602001604051809103902060008282546104059190610afd565b9250508190555050565b60006001826040516104219190610ab7565b9081526020016040518091039020549050919050565b60006002826040516104499190610ab7565b908152602001604051809103902060009054906101000a900473ffffffffffffffffffffffffffffffffffffffff169050919050565b6000819080600181540180825580915050600190039060005260206000200160009091909190915090805190602001906104ba92919061053e565b50346001826040516104cc9190610ab7565b908152602001604051809103902081905550336002826040516104ef9190610ab7565b908152602001604051809103902060006101000a81548173ffffffffffffffffffffffffffffffffffffffff021916908373ffffffffffffffffffffffffffffffffffffffff16021790555050565b82805461054a90610a49565b90600052602060002090601f01602090048101928261056c57600085556105b3565b82601f1061058557805160ff19168380011785556105b3565b828001600101855582156105b3579182015b828111156105b2578251825591602001919060010190610597565b5b5090506105c091906105c4565b5090565b5b808211156105dd5760008160009055506001016105c5565b5090565b600081519050919050565b600082825260208201905092915050565b6000819050602082019050919050565b600081519050919050565b600082825260208201905092915050565b60005b8381101561064757808201518184015260208101905061062c565b83811115610656576000848401525b50505050565b6000601f19601f8301169050919050565b60006106788261060d565b6106828185610618565b9350610692818560208601610629565b61069b8161065c565b840191505092915050565b60006106b2838361066d565b905092915050565b6000602082019050919050565b60006106d2826105e1565b6106dc81856105ec565b9350836020820285016106ee856105fd565b8060005b8581101561072a578484038952815161070b85826106a6565b9450610716836106ba565b925060208a019950506001810190506106f2565b50829750879550505050505092915050565b6000602082019050818103600083015261075681846106c7565b905092915050565b6000604051905090565b600080fd5b600080fd5b600080fd5b600080fd5b7f4e487b7100000000000000000000000000000000000000000000000000000000600052604160045260246000fd5b6107b48261065c565b810181811067ffffffffffffffff821117156107d3576107d261077c565b5b80604052505050565b60006107e661075e565b90506107f282826107ab565b919050565b600067ffffffffffffffff8211156108125761081161077c565b5b61081b8261065c565b9050602081019050919050565b82818337600083830152505050565b600061084a610845846107f7565b6107dc565b90508281526020810184848401111561086657610865610777565b5b610871848285610828565b509392505050565b600082601f83011261088e5761088d610772565b5b813561089e848260208601610837565b91505092915050565b6000602082840312156108bd576108bc610768565b5b600082013567ffffffffffffffff8111156108db576108da61076d565b5b6108e784828501610879565b91505092915050565b600073ffffffffffffffffffffffffffffffffffffffff82169050919050565b600061091b826108f0565b9050919050565b61092b81610910565b82525050565b60006020820190506109466000830184610922565b92915050565b6000819050919050565b61095f8161094c565b82525050565b600060208201905061097a6000830184610956565b92915050565b600061098b826108f0565b9050919050565b61099b81610980565b81146109a657600080fd5b50565b6000813590506109b881610992565b92915050565b600080604083850312156109d5576109d4610768565b5b600083013567ffffffffffffffff8111156109f3576109f261076d565b5b6109ff85828601610879565b9250506020610a10858286016109a9565b9150509250929050565b7f4e487b7100000000000000000000000000000000000000000000000000000000600052602260045260246000fd5b60006002820490506001821680610a6157607f821691505b60208210811415610a7557610a74610a1a565b5b50919050565b600081905092915050565b6000610a918261060d565b610a9b8185610a7b565b9350610aab818560208601610629565b80840191505092915050565b6000610ac38284610a86565b915081905092915050565b7f4e487b7100000000000000000000000000000000000000000000000000000000600052601160045260246000fd5b6000610b088261094c565b9150610b138361094c565b9250827fffffffffffffffffffffffffffffffffffffffffffffffffffffffffffffffff03821115610b4857610b47610ace565b5b82820190509291505056fea2646970667358221220c917a8dffaa8a137205a5931055cdbab2c5e391fd23692c9bb9d588915a1327264736f6c63430008090033",
  "linkReferences": {},
  "deployedLinkReferences": {}
}